S01800004F6E6C696E6531355F50726F6A6563742E737265630B
S11300000C942A000C9447000C9447000C9447006D
S11300100C9447000C9447000C9447000C94470040
S11300200C9447000C9447000C9447000C94470030
S11300300C9447000C9447000C9447000C94470020
S11300400C9447000C9447000C9447000C94470010
S11300500C94470011241FBECFE5D8E0DEBFCDBF0E
S113006010E0A0E6B0E0E0ECFAE002C005900D92EA
S1130070AA3AB107D9F720E0AAEAB0E001C01D927C
S1130080A43BB207E1F70E949A030C945E050C941A
S1130090000082E00E94650281112DC01092B3001D
S11300A01092B2008091B2009091B3008B3491050C
S11300B07CF46091640080E00E94AA028091B20006
S11300C09091B30001969093B3008093B200EACF6D
S11300D08FE097E20197F1F700C000008091B10032
S11300E081110BC08091630080958093630081E04F
S11300F08093B10002C01092B100209163002535B5
S113010009F0A1C0809162006AE00E9452059093B8
S1130110B000880F982F990F990F890F8093AF0023
S11301202093610080E00E946502811119C08FE074
S113013097E20197F1F700C000008091AE008111B1
S113014011C080916400865F8093640091E0909375
S1130150AE00843638F08091B0008093640002C011
S11301601092AE0081E00E946502811121C08FE0EF
S113017097E20197F1F700C000008091AD00811172
S113018008C0809164008F5F8093640081E0809355
S1130190AD004091AF00242F30E0275F3F4F8091A6
S11301A0640090E0281739072CF44093640002C0DF
S11301B01092AD001092B3001092B2008091B20080
S11301C09091B3008B3491057CF46091640080E0DD
S11301D00E94AA028091B2009091B300019690937C
S11301E0B3008093B200EACF80916400843640F477
S11301F080916400811122C081E0809364001EC05C
S11302008091B000809364001092B3001092B20009
S11302108091B2009091B3008B3491054CF76091BA
S1130220640080E00E94AA028091B2009091B30021
S113023001969093B3008093B200EACF809164005A
S11302408093620008952A3A09F026C180916400DF
S1130250811105C081E080936400809362008091E5
S113026061008A3A71F48091AC00811104C081E08C
S11302708093AC0008C08091640081508093640036
S113028002C01092AC0080916000853561F49091B9
S11302906200909364001092AC00809361008AEA3B
S11302A080936000AD981092B3001092B2008091D8
S11302B0B2009091B300843F91400CF054C060911F
S11302C0640080E00E94AA0280916400882309F4FB
S11302D04EC082E00E946502811113C08FE097E254
S11302E00197F1F700C000008091B10081113BC07B
S11302F08091630080958093630081E08093B100D6
S113030032C080E00E946502811110C080916100BA
S113031080958093610080E00E946502811123C072
S11303206091640080E00E94AA02F5CF81E00E94FF
S1130330650281110EC085E58093600081E00E9412
S11303406502811110C06091640080E00E94AA02DD
S1130350F5CF8091B2009091B30001969093B300D1
S11303608093B200A4CF80916400811195C0AD9AAE
S11303701092B3001092B2008091B2009091B30039
S1130380843691050CF06BC060E080E00E94AA0204
S113039080E00E94A20281E00E94A20282E00E9408
S11303A0A20283E00E94A20284E00E94A20285E0ED
S11303B00E94A20286E00E94A2021092AB00109258
S11303C0AA008091AA009091AB000A97A4F460E07F
S11303D080E00E94AA028FEC97E00197F1F700C039
S11303E000008091AA009091AB0001969093AB001D
S11303F08093AA00E6CF81E00E946502811125C0A6
S113040085E58093600081E00E946502811106C049
S11304106091640080E00E94AA02F5CF80E00E940F
S1130420940281E00E94940282E00E94940283E09C
S11304300E94940284E00E94940285E00E94940247
S113044086E00E949402AD980AC08091B200909117
S1130450B30001969093B3008093B2008DCF80E0F7
S11304600E94940281E00E94940282E00E9494021D
S113047083E00E94940284E00E94940285E00E943A
S1130480940286E00E949402AD9880916200809369
S1130490640085E5809361000895CF93DF93C0E005
S11304A0D0E0FE01EB57FF4F9081892F8F7396FDAB
S11304B002C061E001C060E00E9481042196C33063
S11304C0D10579F7DF91CF910895E82FF0E0EB574C
S11304D0FF4F9081892F8F7396FD06C00E940005FF
S11304E091E0811107C005C00E94000591E08130B0
S11304F009F490E0892F0895CF93DF93C0E0D0E012
S1130500FE01E857FF4F9081892F8F7396FF02C039
S113051060E001C061E00E9481042196C730D105EA
S113052079F7DF91CF910895E82FF0E0E857FF4F76
S11305309081892F8F7396FF02C060E001C061E053
S11305400C948104E82FF0E0E857FF4F80818F730B
S11305500C941D058F929F92AF92BF92DF92EF92FF
S1130560FF920F931F93CF93DF93C82F862F2AE018
S1130570622F0E945205F92E8C2E912C289DF00199
S1130580299DF00D1124DF01A855BF4F9C91E15620
S1130590FF4F2AE0C29FE0011124082F10E090FDD4
S11305A058C0E08461E08E2D0E948104C156DF4F63
S11305B0A12CB12CF801E157FF4F008110E0B801E4
S11305C00A2C02C0759567950A94E2F76170FE01E2
S11305D0EA0DFB1D80810E9481048FEFA81AB80ADE
S11305E097E0A916B10459F78AE0889DF001899D26
S11305F0F00D1124E156FF4F178160E0812F0E9416
S113060081048FEC97E00197F1F700C0000061E0EE
S1130610812F0E94810400E010E0EF2DF0E0E1570B
S1130620FF4FA080B12CB501002E02C075956795CF
S11306300A94E2F76170FE01E00FF11F80810E94CD
S113064081040F5F1F4F0730110569F760E08E2D9D
S11306505DC0D08461E08D2D0E948104C156DF4FBE
S1130660A12CB12CF801E157FF4F008110E0B80133
S11306700A2C02C0759567950A94E2F76170772792
S113068091E06927FE01EA0DFB1D80810E9481042F
S11306902FEFA21AB20A87E0A816B10441F78AE044
S11306A0889DF001899DF00D1124E156FF4F1781BB
S11306B060E0812F0E9481048FEC97E00197F1F7AD
S11306C000C0000061E0812F0E94810400E010E07E
S11306D0EF2DF0E0E157FF4FE080F12CB701002E41
S11306E002C0759567950A94E2F76170772791E0E7
S11306F06927FE01E00FF11F80810E9481040F5FD2
S11307001F4F0730110551F760E08D2D0E948104C1
S11307108FEC97E00197F1F700C00000DF91CF91D3
S11307201F910F91FF90EF90DF90BF90AF909F903B
S11307308F9008950E94A3030E947C020E944D02A0
S11307400E944900FDCFE5E6F0E040E081E090E062
S11307505191342F369536953695242F2770513084
S113076009F443C020F0523009F482C0C5C03230CD
S113077001F1333061F1313071F05AB3BC0102C080
S1130780660F771F2A95E2F79B01352F322B3ABB70
S11307903BB320953DC057B3BC0102C0660F771F21
S11307A02A95E2F79B01352F322B37BB38B32095BE
S11307B03EC054B3BC0102C0660F771F2A95E2F70E
S11307C09B01352F322B34BB35B320953FC051B339
S11307D0BC0102C0660F771F2A95E2F79B01352FF3
S11307E0322B31BB32B3209541C0323011F133305A
S11307F081F1313079F05AB3BC0102C0660F771F22
S11308002A95E2F79B012095352F32233ABB3BB35F
S1130810232342C057B3BC0102C0660F771F2A9539
S1130820E2F79B012095352F322337BB38B32323BE
S113083043C054B3BC0102C0660F771F2A95E2F788
S11308409B012095352F322334BB35B3232325BB9D
S113085053C051B3BC0102C0660F771F2A95E2F75B
S11308609B012095352F322331BB32B3232343C060
S1130870323021F1333089F1313081F05AB3BC0187
S113088002C0660F771F2A95E2F79B01362F309539
S113089035233ABB3BB3232B2BBB2EC057B3BC0130
S11308A002C0660F771F2A95E2F79B01362F309519
S11308B0352337BB38B3232B28BB1EC054B3BC012C
S11308C002C0660F771F2A95E2F79B01362F3095F9
S11308D0352334BB35B3232BBACF51B3BC0102C08B
S11308E0660F771F2A95E2F79B01362F3095352343
S11308F031BB32B3232B22BB4F5F403209F028CFE8
S11309000895982F96959695969587706130C1F5C0
S1130910913091F028F09230D9F0933029F1089574
S11309204BB321E030E0B90102C0660F771F8A950E
S1130930E2F7CB01842B38C048B321E030E0B901A1
S113094002C0660F771F8A95E2F7CB01842B3AC069
S113095045B321E030E0B90102C0660F771F8A95E4
S1130960E2F7CB01842B3CC042B321E030E0B90173
S113097002C0660F771F8A95E2F7CB01842B3EC035
S11309809130A1F028F09230F9F0933059F10895A4
S11309904BB321E030E0B90102C0660F771F8A959E
S11309A0E2F7CB01809584238BBB089548B321E003
S11309B030E0B90102C0660F771F8A95E2F7CB01D8
S11309C08095842388BB089545B321E030E0B901C4
S11309D002C0660F771F8A95E2F7CB0180958423C6
S11309E085BB089542B321E030E0B90102C0660F2F
S11309F0771F8A95E2F7CB018095842382BB089503
S1130A00282F2770869586958695813049F030F099
S1130A10823041F0833079F480B305C089B303C0D8
S1130A2086B301C083B390E002C0959587952A955B
S1130A30E2F78170089580E00895282F2770869545
S1130A4086958695813081F028F08230B9F0833024
S1130A50F9F008953BB381E090E001C0880F2A9536
S1130A60EAF783278BBB089538B381E090E001C097
S1130A70880F2A95EAF7832788BB089535B381E068
S1130A8090E001C0880F2A95EAF7832785BB089573
S1130A9032B381E090E001C0880F2A95EAF78327FA
S1130AA082BB0895991B79E004C0991F961708F03A
S1130AB0961B881F7A95C9F780950895F894FFCFFF
S1130AC0AA551EAA1E00000000000000000100003C
S1130AD00000000000010101010100000001010209
S1130AE002020101011A1B1C494A4B4C4D4E4F3F57
S1130AF0065B4F666D7D077F6F777C395E79710188
S10D0B00020304050607161700009F
S9030000FC
